{
  "contractName": "SimpleLendingContract",
  "abi": [
    {
      "inputs": [],
      "name": "availableBalance",
      "outputs": [
        {
          "internalType": "uint256",
          "name": "",
          "type": "uint256"
        }
      ],
      "stateMutability": "view",
      "type": "function",
      "constant": true
    },
    {
      "inputs": [
        {
          "internalType": "address",
          "name": "",
          "type": "address"
        }
      ],
      "name": "loans",
      "outputs": [
        {
          "internalType": "address",
          "name": "borrower",
          "type": "address"
        },
        {
          "internalType": "uint256",
          "name": "requestedAmount",
          "type": "uint256"
        },
        {
          "internalType": "uint256",
          "name": "repayAmount",
          "type": "uint256"
        },
        {
          "internalType": "uint256",
          "name": "interestRate",
          "type": "uint256"
        },
        {
          "internalType": "enum SimpleLendingContract.LoanState",
          "name": "state",
          "type": "uint8"
        },
        {
          "internalType": "uint256",
          "name": "requestedDate",
          "type": "uint256"
        }
      ],
      "stateMutability": "view",
      "type": "function",
      "constant": true
    },
    {
      "inputs": [],
      "name": "addFunds",
      "outputs": [],
      "stateMutability": "payable",
      "type": "function",
      "payable": true
    },
    {
      "inputs": [
        {
          "internalType": "uint256",
          "name": "amount",
          "type": "uint256"
        }
      ],
      "name": "requestLoan",
      "outputs": [],
      "stateMutability": "nonpayable",
      "type": "function"
    },
    {
      "inputs": [
        {
          "internalType": "address",
          "name": "borrower",
          "type": "address"
        }
      ],
      "name": "getLoanDetails",
      "outputs": [
        {
          "components": [
            {
              "internalType": "address",
              "name": "borrower",
              "type": "address"
            },
            {
              "internalType": "uint256",
              "name": "requestedAmount",
              "type": "uint256"
            },
            {
              "internalType": "uint256",
              "name": "repayAmount",
              "type": "uint256"
            },
            {
              "internalType": "uint256",
              "name": "interestRate",
              "type": "uint256"
            },
            {
              "internalType": "enum SimpleLendingContract.LoanState",
              "name": "state",
              "type": "uint8"
            },
            {
              "internalType": "uint256",
              "name": "requestedDate",
              "type": "uint256"
            }
          ],
          "internalType": "struct SimpleLendingContract.Loan",
          "name": "",
          "type": "tuple"
        }
      ],
      "stateMutability": "view",
      "type": "function",
      "constant": true
    },
    {
      "inputs": [
        {
          "internalType": "address",
          "name": "borrower",
          "type": "address"
        }
      ],
      "name": "fundLoan",
      "outputs": [],
      "stateMutability": "nonpayable",
      "type": "function"
    },
    {
      "inputs": [
        {
          "internalType": "address",
          "name": "borrower",
          "type": "address"
        }
      ],
      "name": "getRepayAmount",
      "outputs": [
        {
          "internalType": "uint256",
          "name": "",
          "type": "uint256"
        }
      ],
      "stateMutability": "view",
      "type": "function",
      "constant": true
    },
    {
      "inputs": [],
      "name": "repayLoan",
      "outputs": [],
      "stateMutability": "payable",
      "type": "function",
      "payable": true
    },
    {
      "inputs": [],
      "name": "getContractBalance",
      "outputs": [
        {
          "internalType": "uint256",
          "name": "",
          "type": "uint256"
        }
      ],
      "stateMutability": "view",
      "type": "function",
      "constant": true
    }
  ],
  "bytecode": "0x608060405234801561001057600080fd5b50611191806100206000396000f3fe6080604052600436106100865760003560e01c8063a26759cb11610059578063a26759cb1461015e578063ab2f0e5114610168578063e48f6faf14610193578063e8a7da8e146101bc578063f966ade7146101f957610086565b80636f9fb98a1461008b57806373b4086b146100b65780638d5d3429146100f85780639be5b2bd14610121575b600080fd5b34801561009757600080fd5b506100a0610203565b6040516100ad9190610adc565b60405180910390f35b3480156100c257600080fd5b506100dd60048036038101906100d89190610b5a565b61020b565b6040516100ef96959493929190610c0d565b60405180910390f35b34801561010457600080fd5b5061011f600480360381019061011a9190610c9a565b610274565b005b34801561012d57600080fd5b5061014860048036038101906101439190610b5a565b61059c565b6040516101559190610adc565b60405180910390f35b6101666105ec565b005b34801561017457600080fd5b5061017d610609565b60405161018a9190610adc565b60405180910390f35b34801561019f57600080fd5b506101ba60048036038101906101b59190610b5a565b61060f565b005b3480156101c857600080fd5b506101e360048036038101906101de9190610b5a565b6107d1565b6040516101f09190610d6f565b60405180910390f35b6102016108bd565b005b600047905090565b60006020528060005260406000206000915090508060000160009054906101000a900473ffffffffffffffffffffffffffffffffffffffff16908060010154908060020154908060030154908060040160009054906101000a900460ff16908060050154905086565b600081116102b7576040517f08c379a00000000000000000000000000000000000000000000000000000000081526004016102ae90610e0d565b60405180910390fd5b600060038111156102cb576102ca610b96565b5b60038111156102dd576102dc610b96565b5b6000803373ffffffffffffffffffffffffffffffffffffffff1673ffffffffffffffffffffffffffffffffffffffff16815260200190815260200160002060040160009054906101000a900460ff16600381111561033e5761033d610b96565b5b1461037e576040517f08c379a000000000000000000000000000000000000000000000000000000000815260040161037590610e79565b60405180910390fd5b6000610389826109f5565b90506040518060c001604052803373ffffffffffffffffffffffffffffffffffffffff16815260200183815260200182815260200160028152602001600060038111156103d9576103d8610b96565b5b8152602001428152506000803373ffffffffffffffffffffffffffffffffffffffff1673ffffffffffffffffffffffffffffffffffffffff16815260200190815260200160002060008201518160000160006101000a81548173ffffffffffffffffffffffffffffffffffffffff021916908373ffffffffffffffffffffffffffffffffffffffff16021790555060208201518160010155604082015181600201556060820151816003015560808201518160040160006101000a81548160ff021916908360038111156104b0576104af610b96565b5b021790555060a082015181600501559050508160015410610598573373ffffffffffffffffffffffffffffffffffffffff166108fc839081150290604051600060405180830381858888f19350505050158015610511573d6000803e3d6000fd5b5060016000803373ffffffffffffffffffffffffffffffffffffffff1673ffffffffffffffffffffffffffffffffffffffff16815260200190815260200160002060040160006101000a81548160ff0219169083600381111561057757610576610b96565b5b021790555061059182600154610a1290919063ffffffff16565b6001819055505b5050565b6000806000808473ffffffffffffffffffffffffffffffffffffffff1673ffffffffffffffffffffffffffffffffffffffff16815260200190815260200160002090508060020154915050919050565b61060134600154610a3990919063ffffffff16565b600181905550565b60015481565b60008060008373ffffffffffffffffffffffffffffffffffffffff1673ffffffffffffffffffffffffffffffffffffffff16815260200190815260200160002090506000600381111561066557610664610b96565b5b8160040160009054906101000a900460ff16600381111561068957610688610b96565b5b146106c9576040517f08c379a00000000000000000000000000000000000000000000000000000000081526004016106c090610f0b565b60405180910390fd5b80600101546001541015610712576040517f08c379a000000000000000000000000000000000000000000000000000000000815260040161070990610f9d565b60405180910390fd5b8060000160009054906101000a900473ffffffffffffffffffffffffffffffffffffffff1673ffffffffffffffffffffffffffffffffffffffff166108fc82600101549081150290604051600060405180830381858888f19350505050158015610780573d6000803e3d6000fd5b5060018160040160006101000a81548160ff021916908360038111156107a9576107a8610b96565b5b02179055506107c78160010154600154610a1290919063ffffffff16565b6001819055505050565b6107d9610a65565b60008060008473ffffffffffffffffffffffffffffffffffffffff1673ffffffffffffffffffffffffffffffffffffffff16815260200190815260200160002090506040518060c001604052808260000160009054906101000a900473ffffffffffffffffffffffffffffffffffffffff1673ffffffffffffffffffffffffffffffffffffffff1681526020018260010154815260200182600201548152602001826003015481526020018260040160009054906101000a900460ff1660038111156108a8576108a7610b96565b5b81526020018260050154815250915050919050565b60008060003373ffffffffffffffffffffffffffffffffffffffff1673ffffffffffffffffffffffffffffffffffffffff16815260200190815260200160002090506001600381111561091357610912610b96565b5b8160040160009054906101000a900460ff16600381111561093757610936610b96565b5b14610977576040517f08c379a000000000000000000000000000000000000000000000000000000000815260040161096e90611009565b60405180910390fd5b806002015434146109bd576040517f08c379a00000000000000000000000000000000000000000000000000000000081526004016109b490611075565b60405180910390fd5b6109c56105ec565b60028160040160006101000a81548160ff021916908360038111156109ed576109ec610b96565b5b021790555050565b6000671bc16d674ec8000082610a0b91906110c4565b9050919050565b600082821115610a2557610a246110f8565b5b8183610a319190611127565b905092915050565b6000808284610a4891906110c4565b905083811015610a5b57610a5a6110f8565b5b8091505092915050565b6040518060c00160405280600073ffffffffffffffffffffffffffffffffffffffff16815260200160008152602001600081526020016000815260200160006003811115610ab657610ab5610b96565b5b8152602001600081525090565b6000819050919050565b610ad681610ac3565b82525050565b6000602082019050610af16000830184610acd565b92915050565b600080fd5b600073ffffffffffffffffffffffffffffffffffffffff82169050919050565b6000610b2782610afc565b9050919050565b610b3781610b1c565b8114610b4257600080fd5b50565b600081359050610b5481610b2e565b92915050565b600060208284031215610b7057610b6f610af7565b5b6000610b7e84828501610b45565b91505092915050565b610b9081610b1c565b82525050565b7f4e487b7100000000000000000000000000000000000000000000000000000000600052602160045260246000fd5b60048110610bd657610bd5610b96565b5b50565b6000819050610be782610bc5565b919050565b6000610bf782610bd9565b9050919050565b610c0781610bec565b82525050565b600060c082019050610c226000830189610b87565b610c2f6020830188610acd565b610c3c6040830187610acd565b610c496060830186610acd565b610c566080830185610bfe565b610c6360a0830184610acd565b979650505050505050565b610c7781610ac3565b8114610c8257600080fd5b50565b600081359050610c9481610c6e565b92915050565b600060208284031215610cb057610caf610af7565b5b6000610cbe84828501610c85565b91505092915050565b610cd081610b1c565b82525050565b610cdf81610ac3565b82525050565b610cee81610bec565b82525050565b60c082016000820151610d0a6000850182610cc7565b506020820151610d1d6020850182610cd6565b506040820151610d306040850182610cd6565b506060820151610d436060850182610cd6565b506080820151610d566080850182610ce5565b5060a0820151610d6960a0850182610cd6565b50505050565b600060c082019050610d846000830184610cf4565b92915050565b600082825260208201905092915050565b7f4c6f616e20616d6f756e74206d7573742062652067726561746572207468616e60008201527f2030000000000000000000000000000000000000000000000000000000000000602082015250565b6000610df7602283610d8a565b9150610e0282610d9b565b604082019050919050565b60006020820190508181036000830152610e2681610dea565b9050919050565b7f50726576696f7573206c6f616e206d75737420626520636c6f73656400000000600082015250565b6000610e63601c83610d8a565b9150610e6e82610e2d565b602082019050919050565b60006020820190508181036000830152610e9281610e56565b9050919050565b7f4c6f616e206973206e6f7420696e20746865207265717565737465642073746160008201527f7465000000000000000000000000000000000000000000000000000000000000602082015250565b6000610ef5602283610d8a565b9150610f0082610e99565b604082019050919050565b60006020820190508181036000830152610f2481610ee8565b9050919050565b7f496e73756666696369656e742066756e647320746f2066756e6420746865206c60008201527f6f616e0000000000000000000000000000000000000000000000000000000000602082015250565b6000610f87602383610d8a565b9150610f9282610f2b565b604082019050919050565b60006020820190508181036000830152610fb681610f7a565b9050919050565b7f4c6f616e206973206e6f7420696e207468652066756e64656420737461746500600082015250565b6000610ff3601f83610d8a565b9150610ffe82610fbd565b602082019050919050565b6000602082019050818103600083015261102281610fe6565b9050919050565b7f496e636f72726563742072657061796d656e7420616d6f756e74000000000000600082015250565b600061105f601a83610d8a565b915061106a82611029565b602082019050919050565b6000602082019050818103600083015261108e81611052565b9050919050565b7f4e487b7100000000000000000000000000000000000000000000000000000000600052601160045260246000fd5b60006110cf82610ac3565b91506110da83610ac3565b92508282019050808211156110f2576110f1611095565b5b92915050565b7f4e487b7100000000000000000000000000000000000000000000000000000000600052600160045260246000fd5b600061113282610ac3565b915061113d83610ac3565b925082820390508181111561115557611154611095565b5b9291505056fea2646970667358221220dd177ca43c5ef949d234f6f266c1ef457b399d23162add641c15838811beb06864736f6c63430008130033",
  "immutableReferences": {},
  "source": "// SPDX-License-Identifier: MIT\r\npragma solidity ^0.8.19;\r\n\r\nimport './SafeMath.sol';\r\n\r\ncontract SimpleLendingContract {\r\n\r\n    using SafeMath for uint;\r\n\r\n    // Enum to represent the state of the loan\r\n    enum LoanState { Requested, Funded, Repaid, Defaulted }\r\n\r\n    // Struct to represent the loan details\r\n    struct Loan {\r\n        address borrower;\r\n        uint requestedAmount;\r\n        uint repayAmount;\r\n        uint interestRate; // in percentage\r\n        LoanState state;\r\n        uint requestedDate;\r\n    }\r\n\r\n    // Mapping to store loans by borrower address\r\n    mapping(address => Loan) public loans;\r\n\r\n    // Variable to store the available balance in the contract\r\n    uint public availableBalance;\r\n\r\n    // Function to add funds to the contract\r\n    function addFunds() public payable {\r\n        availableBalance = availableBalance.add(msg.value);\r\n    }\r\n\r\n    // Function to request a loan\r\n    // function requestLoan(uint amount) public {\r\n    //     require(amount > 0, \"Loan amount must be greater than 0\");\r\n\r\n    //     // Calculate repay amount based on the loan details\r\n    //     uint repayAmount = calculateRepayAmount(amount);\r\n\r\n    //     // Create a new loan\r\n    //     loans[msg.sender] = Loan({\r\n    //         borrower: msg.sender,\r\n    //         requestedAmount: amount,\r\n    //         repayAmount: repayAmount,\r\n    //         interestRate: 2,\r\n    //         state: LoanState.Requested,\r\n    //         requestedDate: block.timestamp\r\n    //     });\r\n    // }\r\n\r\n    function requestLoan(uint amount) public {\r\n        require(amount > 0, \"Loan amount must be greater than 0\");\r\n        require(loans[msg.sender].state == LoanState(0), \"Previous loan must be closed\"); // Optional: restrict multiple loans\r\n\r\n        // Calculate repay amount\r\n        uint repayAmount = calculateRepayAmount(amount);\r\n\r\n        // Create a new loan\r\n        loans[msg.sender] = Loan({\r\n            borrower: msg.sender,\r\n            requestedAmount: amount,\r\n            repayAmount: repayAmount,\r\n            interestRate: 2,\r\n            state: LoanState.Requested,\r\n            requestedDate: block.timestamp\r\n        });\r\n\r\n        // Auto fund the loan if enough balance\r\n        if (availableBalance >= amount) {\r\n            // Transfer the loan amount to borrower\r\n            payable(msg.sender).transfer(amount);\r\n\r\n            // Update state\r\n            loans[msg.sender].state = LoanState.Funded;\r\n\r\n            // Reduce from pool\r\n            availableBalance = availableBalance.sub(amount);\r\n        }\r\n    }\r\n\r\n\r\n\r\n\r\n\r\n    // Function to get loan details in a more readable format\r\n    function getLoanDetails(address borrower) external view returns (Loan memory) {\r\n        Loan storage loan = loans[borrower];\r\n        return Loan({\r\n            borrower: loan.borrower,\r\n            requestedAmount: loan.requestedAmount,\r\n            repayAmount: loan.repayAmount,\r\n            interestRate: loan.interestRate,\r\n            state: loan.state,\r\n            requestedDate: loan.requestedDate\r\n        });\r\n    }\r\n\r\n    // Function to fund a loan\r\n    function fundLoan(address borrower) public {\r\n        // Get the loan details\r\n        Loan storage loan = loans[borrower];\r\n\r\n        // Check if the loan is in the requested state\r\n        require(loan.state == LoanState.Requested, \"Loan is not in the requested state\");\r\n\r\n        // Check if there are sufficient funds to fund the loan\r\n        require(availableBalance >= loan.requestedAmount, \"Insufficient funds to fund the loan\");\r\n\r\n        // Transfer funds from contract to borrower\r\n        payable(loan.borrower).transfer(loan.requestedAmount);\r\n\r\n        // Update loan state to funded\r\n        loan.state = LoanState.Funded;\r\n\r\n        // Deduct the funded amount from available balance\r\n        availableBalance = availableBalance.sub(loan.requestedAmount);\r\n    }\r\n\r\n    // Function to get the repay amount for a loan\r\n    function getRepayAmount(address borrower) external view returns (uint) {\r\n        Loan storage loan = loans[borrower];\r\n        return loan.repayAmount;\r\n    }\r\n\r\n    // Function to repay a loan\r\n    function repayLoan() public payable {\r\n        // Get the loan details\r\n        Loan storage loan = loans[msg.sender];\r\n\r\n        // Check if the loan is in the funded state\r\n        require(loan.state == LoanState.Funded, \"Loan is not in the funded state\");\r\n\r\n        // Check if the repayment amount is sufficient\r\n        require(msg.value == loan.repayAmount, \"Incorrect repayment amount\");\r\n\r\n        //Return msg.value to contract\r\n        addFunds();\r\n\r\n        // Update loan state to repaid\r\n        loan.state = LoanState.Repaid;\r\n    }\r\n\r\n    // Function to calculate the repay amount based on loan details\r\n    function calculateRepayAmount(uint amount) internal pure returns (uint) {\r\n        // Add the amount and a constant interest of 2 ethers\r\n        return amount + 2 ether;\r\n    }\r\n\r\n    function getContractBalance() public view returns (uint256) {\r\n        return address(this).balance;\r\n    }\r\n}\r\n",
  "sourcePath": "D:\\Shashwat\\Projects\\playground\\Decentralized-Lending-System-DApp\\contracts\\SimpleLendingContract.sol",
  "compiler": {
    "name": "solc",
    "version": "0.8.19+commit.7dd6d404.Emscripten.clang"
  },
  "schemaVersion": "3.4.16",
  "updatedAt": "2025-04-14T18:12:16.489Z",
  "networkType": "ethereum",
  "devdoc": {
    "kind": "dev",
    "methods": {},
    "version": 1
  },
  "userdoc": {
    "kind": "user",
    "methods": {},
    "version": 1
  }
}