{
  "contractName": "SimpleLendingContract",
  "abi": [
    {
      "inputs": [],
      "name": "availableBalance",
      "outputs": [
        {
          "internalType": "uint256",
          "name": "",
          "type": "uint256"
        }
      ],
      "stateMutability": "view",
      "type": "function",
      "constant": true
    },
    {
      "inputs": [
        {
          "internalType": "address",
          "name": "",
          "type": "address"
        }
      ],
      "name": "loans",
      "outputs": [
        {
          "internalType": "address",
          "name": "borrower",
          "type": "address"
        },
        {
          "internalType": "uint256",
          "name": "requestedAmount",
          "type": "uint256"
        },
        {
          "internalType": "uint256",
          "name": "repayAmount",
          "type": "uint256"
        },
        {
          "internalType": "uint256",
          "name": "interestRate",
          "type": "uint256"
        },
        {
          "internalType": "enum SimpleLendingContract.LoanState",
          "name": "state",
          "type": "uint8"
        },
        {
          "internalType": "uint256",
          "name": "requestedDate",
          "type": "uint256"
        }
      ],
      "stateMutability": "view",
      "type": "function",
      "constant": true
    },
    {
      "inputs": [],
      "name": "addFunds",
      "outputs": [],
      "stateMutability": "payable",
      "type": "function",
      "payable": true
    },
    {
      "inputs": [
        {
          "internalType": "uint256",
          "name": "amount",
          "type": "uint256"
        }
      ],
      "name": "requestLoan",
      "outputs": [],
      "stateMutability": "nonpayable",
      "type": "function"
    },
    {
      "inputs": [
        {
          "internalType": "address",
          "name": "borrower",
          "type": "address"
        }
      ],
      "name": "getLoanDetails",
      "outputs": [
        {
          "components": [
            {
              "internalType": "address",
              "name": "borrower",
              "type": "address"
            },
            {
              "internalType": "uint256",
              "name": "requestedAmount",
              "type": "uint256"
            },
            {
              "internalType": "uint256",
              "name": "repayAmount",
              "type": "uint256"
            },
            {
              "internalType": "uint256",
              "name": "interestRate",
              "type": "uint256"
            },
            {
              "internalType": "enum SimpleLendingContract.LoanState",
              "name": "state",
              "type": "uint8"
            },
            {
              "internalType": "uint256",
              "name": "requestedDate",
              "type": "uint256"
            }
          ],
          "internalType": "struct SimpleLendingContract.Loan",
          "name": "",
          "type": "tuple"
        }
      ],
      "stateMutability": "view",
      "type": "function",
      "constant": true
    },
    {
      "inputs": [
        {
          "internalType": "address",
          "name": "borrower",
          "type": "address"
        }
      ],
      "name": "fundLoan",
      "outputs": [],
      "stateMutability": "nonpayable",
      "type": "function"
    },
    {
      "inputs": [
        {
          "internalType": "address",
          "name": "borrower",
          "type": "address"
        }
      ],
      "name": "getRepayAmount",
      "outputs": [
        {
          "internalType": "uint256",
          "name": "",
          "type": "uint256"
        }
      ],
      "stateMutability": "view",
      "type": "function",
      "constant": true
    },
    {
      "inputs": [],
      "name": "repayLoan",
      "outputs": [],
      "stateMutability": "payable",
      "type": "function",
      "payable": true
    },
    {
      "inputs": [],
      "name": "getContractBalance",
      "outputs": [
        {
          "internalType": "uint256",
          "name": "",
          "type": "uint256"
        }
      ],
      "stateMutability": "view",
      "type": "function",
      "constant": true
    }
  ],
  "bytecode": "0x608060405234801561001057600080fd5b50610f88806100206000396000f3fe6080604052600436106100865760003560e01c8063a26759cb11610059578063a26759cb1461015e578063ab2f0e5114610168578063e48f6faf14610193578063e8a7da8e146101bc578063f966ade7146101f957610086565b80636f9fb98a1461008b57806373b4086b146100b65780638d5d3429146100f85780639be5b2bd14610121575b600080fd5b34801561009757600080fd5b506100a0610203565b6040516100ad919061093f565b60405180910390f35b3480156100c257600080fd5b506100dd60048036038101906100d891906109bd565b61020b565b6040516100ef96959493929190610a70565b60405180910390f35b34801561010457600080fd5b5061011f600480360381019061011a9190610afd565b610274565b005b34801561012d57600080fd5b50610148600480360381019061014391906109bd565b6103ff565b604051610155919061093f565b60405180910390f35b61016661044f565b005b34801561017457600080fd5b5061017d61046c565b60405161018a919061093f565b60405180910390f35b34801561019f57600080fd5b506101ba60048036038101906101b591906109bd565b610472565b005b3480156101c857600080fd5b506101e360048036038101906101de91906109bd565b610634565b6040516101f09190610bd2565b60405180910390f35b610201610720565b005b600047905090565b60006020528060005260406000206000915090508060000160009054906101000a900473ffffffffffffffffffffffffffffffffffffffff16908060010154908060020154908060030154908060040160009054906101000a900460ff16908060050154905086565b600081116102b7576040517f08c379a00000000000000000000000000000000000000000000000000000000081526004016102ae90610c70565b60405180910390fd5b60006102c282610858565b90506040518060c001604052803373ffffffffffffffffffffffffffffffffffffffff1681526020018381526020018281526020016002815260200160006003811115610312576103116109f9565b5b8152602001428152506000803373ffffffffffffffffffffffffffffffffffffffff1673ffffffffffffffffffffffffffffffffffffffff16815260200190815260200160002060008201518160000160006101000a81548173ffffffffffffffffffffffffffffffffffffffff021916908373ffffffffffffffffffffffffffffffffffffffff16021790555060208201518160010155604082015181600201556060820151816003015560808201518160040160006101000a81548160ff021916908360038111156103e9576103e86109f9565b5b021790555060a082015181600501559050505050565b6000806000808473ffffffffffffffffffffffffffffffffffffffff1673ffffffffffffffffffffffffffffffffffffffff16815260200190815260200160002090508060020154915050919050565b6104643460015461087590919063ffffffff16565b600181905550565b60015481565b60008060008373ffffffffffffffffffffffffffffffffffffffff1673ffffffffffffffffffffffffffffffffffffffff1681526020019081526020016000209050600060038111156104c8576104c76109f9565b5b8160040160009054906101000a900460ff1660038111156104ec576104eb6109f9565b5b1461052c576040517f08c379a000000000000000000000000000000000000000000000000000000000815260040161052390610d02565b60405180910390fd5b80600101546001541015610575576040517f08c379a000000000000000000000000000000000000000000000000000000000815260040161056c90610d94565b60405180910390fd5b8060000160009054906101000a900473ffffffffffffffffffffffffffffffffffffffff1673ffffffffffffffffffffffffffffffffffffffff166108fc82600101549081150290604051600060405180830381858888f193505050501580156105e3573d6000803e3d6000fd5b5060018160040160006101000a81548160ff0219169083600381111561060c5761060b6109f9565b5b021790555061062a81600101546001546108a190919063ffffffff16565b6001819055505050565b61063c6108c8565b60008060008473ffffffffffffffffffffffffffffffffffffffff1673ffffffffffffffffffffffffffffffffffffffff16815260200190815260200160002090506040518060c001604052808260000160009054906101000a900473ffffffffffffffffffffffffffffffffffffffff1673ffffffffffffffffffffffffffffffffffffffff1681526020018260010154815260200182600201548152602001826003015481526020018260040160009054906101000a900460ff16600381111561070b5761070a6109f9565b5b81526020018260050154815250915050919050565b60008060003373ffffffffffffffffffffffffffffffffffffffff1673ffffffffffffffffffffffffffffffffffffffff168152602001908152602001600020905060016003811115610776576107756109f9565b5b8160040160009054906101000a900460ff16600381111561079a576107996109f9565b5b146107da576040517f08c379a00000000000000000000000000000000000000000000000000000000081526004016107d190610e00565b60405180910390fd5b80600201543414610820576040517f08c379a000000000000000000000000000000000000000000000000000000000815260040161081790610e6c565b60405180910390fd5b61082861044f565b60028160040160006101000a81548160ff021916908360038111156108505761084f6109f9565b5b021790555050565b6000671bc16d674ec800008261086e9190610ebb565b9050919050565b60008082846108849190610ebb565b90508381101561089757610896610eef565b5b8091505092915050565b6000828211156108b4576108b3610eef565b5b81836108c09190610f1e565b905092915050565b6040518060c00160405280600073ffffffffffffffffffffffffffffffffffffffff16815260200160008152602001600081526020016000815260200160006003811115610919576109186109f9565b5b8152602001600081525090565b6000819050919050565b61093981610926565b82525050565b60006020820190506109546000830184610930565b92915050565b600080fd5b600073ffffffffffffffffffffffffffffffffffffffff82169050919050565b600061098a8261095f565b9050919050565b61099a8161097f565b81146109a557600080fd5b50565b6000813590506109b781610991565b92915050565b6000602082840312156109d3576109d261095a565b5b60006109e1848285016109a8565b91505092915050565b6109f38161097f565b82525050565b7f4e487b7100000000000000000000000000000000000000000000000000000000600052602160045260246000fd5b60048110610a3957610a386109f9565b5b50565b6000819050610a4a82610a28565b919050565b6000610a5a82610a3c565b9050919050565b610a6a81610a4f565b82525050565b600060c082019050610a8560008301896109ea565b610a926020830188610930565b610a9f6040830187610930565b610aac6060830186610930565b610ab96080830185610a61565b610ac660a0830184610930565b979650505050505050565b610ada81610926565b8114610ae557600080fd5b50565b600081359050610af781610ad1565b92915050565b600060208284031215610b1357610b1261095a565b5b6000610b2184828501610ae8565b91505092915050565b610b338161097f565b82525050565b610b4281610926565b82525050565b610b5181610a4f565b82525050565b60c082016000820151610b6d6000850182610b2a565b506020820151610b806020850182610b39565b506040820151610b936040850182610b39565b506060820151610ba66060850182610b39565b506080820151610bb96080850182610b48565b5060a0820151610bcc60a0850182610b39565b50505050565b600060c082019050610be76000830184610b57565b92915050565b600082825260208201905092915050565b7f4c6f616e20616d6f756e74206d7573742062652067726561746572207468616e60008201527f2030000000000000000000000000000000000000000000000000000000000000602082015250565b6000610c5a602283610bed565b9150610c6582610bfe565b604082019050919050565b60006020820190508181036000830152610c8981610c4d565b9050919050565b7f4c6f616e206973206e6f7420696e20746865207265717565737465642073746160008201527f7465000000000000000000000000000000000000000000000000000000000000602082015250565b6000610cec602283610bed565b9150610cf782610c90565b604082019050919050565b60006020820190508181036000830152610d1b81610cdf565b9050919050565b7f496e73756666696369656e742066756e647320746f2066756e6420746865206c60008201527f6f616e0000000000000000000000000000000000000000000000000000000000602082015250565b6000610d7e602383610bed565b9150610d8982610d22565b604082019050919050565b60006020820190508181036000830152610dad81610d71565b9050919050565b7f4c6f616e206973206e6f7420696e207468652066756e64656420737461746500600082015250565b6000610dea601f83610bed565b9150610df582610db4565b602082019050919050565b60006020820190508181036000830152610e1981610ddd565b9050919050565b7f496e636f72726563742072657061796d656e7420616d6f756e74000000000000600082015250565b6000610e56601a83610bed565b9150610e6182610e20565b602082019050919050565b60006020820190508181036000830152610e8581610e49565b9050919050565b7f4e487b7100000000000000000000000000000000000000000000000000000000600052601160045260246000fd5b6000610ec682610926565b9150610ed183610926565b9250828201905080821115610ee957610ee8610e8c565b5b92915050565b7f4e487b7100000000000000000000000000000000000000000000000000000000600052600160045260246000fd5b6000610f2982610926565b9150610f3483610926565b9250828203905081811115610f4c57610f4b610e8c565b5b9291505056fea26469706673582212200c1abb1aacab2b3e7daa330fc20f6d181b6b168b53ce4522b59dcbdb7f16e1dd64736f6c63430008130033",
  "immutableReferences": {},
  "source": "// SPDX-License-Identifier: MIT\r\npragma solidity ^0.8.19;\r\n\r\nimport './SafeMath.sol';\r\n\r\ncontract SimpleLendingContract {\r\n\r\n    using SafeMath for uint;\r\n\r\n    // Enum to represent the state of the loan\r\n    enum LoanState { Requested, Funded, Repaid, Defaulted }\r\n\r\n    // Struct to represent the loan details\r\n    struct Loan {\r\n        address borrower;\r\n        uint requestedAmount;\r\n        uint repayAmount;\r\n        uint interestRate; // in percentage\r\n        LoanState state;\r\n        uint requestedDate;\r\n    }\r\n\r\n    // Mapping to store loans by borrower address\r\n    mapping(address => Loan) public loans;\r\n\r\n    // Variable to store the available balance in the contract\r\n    uint public availableBalance;\r\n\r\n    // Function to add funds to the contract\r\n    function addFunds() public payable {\r\n        availableBalance = availableBalance.add(msg.value);\r\n    }\r\n\r\n    // Function to request a loan\r\n    function requestLoan(uint amount) public {\r\n        require(amount > 0, \"Loan amount must be greater than 0\");\r\n\r\n        // Calculate repay amount based on the loan details\r\n        uint repayAmount = calculateRepayAmount(amount);\r\n\r\n        // Create a new loan\r\n        loans[msg.sender] = Loan({\r\n            borrower: msg.sender,\r\n            requestedAmount: amount,\r\n            repayAmount: repayAmount,\r\n            interestRate: 2,\r\n            state: LoanState.Requested,\r\n            requestedDate: block.timestamp\r\n        });\r\n    }\r\n\r\n    // Function to get loan details in a more readable format\r\n    function getLoanDetails(address borrower) external view returns (Loan memory) {\r\n        Loan storage loan = loans[borrower];\r\n        return Loan({\r\n            borrower: loan.borrower,\r\n            requestedAmount: loan.requestedAmount,\r\n            repayAmount: loan.repayAmount,\r\n            interestRate: loan.interestRate,\r\n            state: loan.state,\r\n            requestedDate: loan.requestedDate\r\n        });\r\n    }\r\n\r\n    // Function to fund a loan\r\n    function fundLoan(address borrower) public {\r\n        // Get the loan details\r\n        Loan storage loan = loans[borrower];\r\n\r\n        // Check if the loan is in the requested state\r\n        require(loan.state == LoanState.Requested, \"Loan is not in the requested state\");\r\n\r\n        // Check if there are sufficient funds to fund the loan\r\n        require(availableBalance >= loan.requestedAmount, \"Insufficient funds to fund the loan\");\r\n\r\n        // Transfer funds from contract to borrower\r\n        payable(loan.borrower).transfer(loan.requestedAmount);\r\n\r\n        // Update loan state to funded\r\n        loan.state = LoanState.Funded;\r\n\r\n        // Deduct the funded amount from available balance\r\n        availableBalance = availableBalance.sub(loan.requestedAmount);\r\n    }\r\n\r\n    // Function to get the repay amount for a loan\r\n    function getRepayAmount(address borrower) external view returns (uint) {\r\n        Loan storage loan = loans[borrower];\r\n        return loan.repayAmount;\r\n    }\r\n\r\n    // Function to repay a loan\r\n    function repayLoan() public payable {\r\n        // Get the loan details\r\n        Loan storage loan = loans[msg.sender];\r\n\r\n        // Check if the loan is in the funded state\r\n        require(loan.state == LoanState.Funded, \"Loan is not in the funded state\");\r\n\r\n        // Check if the repayment amount is sufficient\r\n        require(msg.value == loan.repayAmount, \"Incorrect repayment amount\");\r\n\r\n        //Return msg.value to contract\r\n        addFunds();\r\n\r\n        // Update loan state to repaid\r\n        loan.state = LoanState.Repaid;\r\n    }\r\n\r\n    // Function to calculate the repay amount based on loan details\r\n    function calculateRepayAmount(uint amount) internal pure returns (uint) {\r\n        // Add the amount and a constant interest of 2 ethers\r\n        return amount + 2 ether;\r\n    }\r\n\r\n    function getContractBalance() public view returns (uint256) {\r\n        return address(this).balance;\r\n    }\r\n}\r\n",
  "sourcePath": "D:\\Shashwat\\Projects\\playground\\Decentralized-Lending-System-DApp\\contracts\\SimpleLendingContract.sol",
  "compiler": {
    "name": "solc",
    "version": "0.8.19+commit.7dd6d404.Emscripten.clang"
  },
  "schemaVersion": "3.4.16",
  "updatedAt": "2025-04-14T13:55:56.822Z",
  "networkType": "ethereum",
  "devdoc": {
    "kind": "dev",
    "methods": {},
    "version": 1
  },
  "userdoc": {
    "kind": "user",
    "methods": {},
    "version": 1
  }
}